{
  "contractName": "StakingToken",
  "abi": [
    {
      "anonymous": false,
      "inputs": [
        {
          "indexed": true,
          "internalType": "address",
          "name": "previousOwner",
          "type": "address"
        },
        {
          "indexed": true,
          "internalType": "address",
          "name": "newOwner",
          "type": "address"
        }
      ],
      "name": "OwnershipTransferred",
      "type": "event"
    },
    {
      "inputs": [
        {
          "internalType": "address",
          "name": "",
          "type": "address"
        }
      ],
      "name": "addressThatReferred",
      "outputs": [
        {
          "internalType": "address",
          "name": "",
          "type": "address"
        }
      ],
      "stateMutability": "view",
      "type": "function",
      "constant": true
    },
    {
      "inputs": [
        {
          "internalType": "address",
          "name": "",
          "type": "address"
        }
      ],
      "name": "bonus",
      "outputs": [
        {
          "internalType": "uint256",
          "name": "uplineProfit",
          "type": "uint256"
        }
      ],
      "stateMutability": "view",
      "type": "function",
      "constant": true
    },
    {
      "inputs": [],
      "name": "contractAddress",
      "outputs": [
        {
          "internalType": "contract IERC20",
          "name": "",
          "type": "address"
        }
      ],
      "stateMutability": "view",
      "type": "function",
      "constant": true
    },
    {
      "inputs": [],
      "name": "minimumStakeValue",
      "outputs": [
        {
          "internalType": "uint256",
          "name": "",
          "type": "uint256"
        }
      ],
      "stateMutability": "view",
      "type": "function",
      "constant": true
    },
    {
      "inputs": [],
      "name": "owner",
      "outputs": [
        {
          "internalType": "address",
          "name": "",
          "type": "address"
        }
      ],
      "stateMutability": "view",
      "type": "function",
      "constant": true
    },
    {
      "inputs": [
        {
          "internalType": "address",
          "name": "",
          "type": "address"
        }
      ],
      "name": "registered",
      "outputs": [
        {
          "internalType": "bool",
          "name": "",
          "type": "bool"
        }
      ],
      "stateMutability": "view",
      "type": "function",
      "constant": true
    },
    {
      "inputs": [],
      "name": "renounceOwnership",
      "outputs": [],
      "stateMutability": "nonpayable",
      "type": "function"
    },
    {
      "inputs": [
        {
          "internalType": "address",
          "name": "",
          "type": "address"
        }
      ],
      "name": "stakeholders",
      "outputs": [
        {
          "internalType": "bool",
          "name": "staker",
          "type": "bool"
        },
        {
          "internalType": "uint256",
          "name": "id",
          "type": "uint256"
        }
      ],
      "stateMutability": "view",
      "type": "function",
      "constant": true
    },
    {
      "inputs": [],
      "name": "stakeholdersIndex",
      "outputs": [
        {
          "internalType": "uint256",
          "name": "",
          "type": "uint256"
        }
      ],
      "stateMutability": "view",
      "type": "function",
      "constant": true
    },
    {
      "inputs": [
        {
          "internalType": "uint256",
          "name": "",
          "type": "uint256"
        }
      ],
      "name": "stakeholdersReverseMapping",
      "outputs": [
        {
          "internalType": "address",
          "name": "",
          "type": "address"
        }
      ],
      "stateMutability": "view",
      "type": "function",
      "constant": true
    },
    {
      "inputs": [],
      "name": "stakingPool",
      "outputs": [
        {
          "internalType": "uint256",
          "name": "",
          "type": "uint256"
        }
      ],
      "stateMutability": "view",
      "type": "function",
      "constant": true
    },
    {
      "inputs": [],
      "name": "totalStakes",
      "outputs": [
        {
          "internalType": "uint256",
          "name": "",
          "type": "uint256"
        }
      ],
      "stateMutability": "view",
      "type": "function",
      "constant": true
    },
    {
      "inputs": [
        {
          "internalType": "address",
          "name": "newOwner",
          "type": "address"
        }
      ],
      "name": "transferOwnership",
      "outputs": [],
      "stateMutability": "nonpayable",
      "type": "function"
    },
    {
      "inputs": [
        {
          "internalType": "contract IERC20",
          "name": "_contractAddress",
          "type": "address"
        }
      ],
      "name": "initialize",
      "outputs": [],
      "stateMutability": "nonpayable",
      "type": "function"
    },
    {
      "inputs": [
        {
          "internalType": "address",
          "name": "stakeholderAddress",
          "type": "address"
        }
      ],
      "name": "stakeholderReferralCount",
      "outputs": [
        {
          "internalType": "uint256",
          "name": "",
          "type": "uint256"
        }
      ],
      "stateMutability": "view",
      "type": "function",
      "constant": true
    },
    {
      "inputs": [
        {
          "internalType": "address",
          "name": "stakeholderAddress",
          "type": "address"
        }
      ],
      "name": "stakeholdersReferredList",
      "outputs": [
        {
          "internalType": "address[]",
          "name": "",
          "type": "address[]"
        }
      ],
      "stateMutability": "view",
      "type": "function",
      "constant": true
    },
    {
      "inputs": [
        {
          "internalType": "address",
          "name": "addr",
          "type": "address"
        }
      ],
      "name": "bal",
      "outputs": [
        {
          "internalType": "uint256",
          "name": "",
          "type": "uint256"
        }
      ],
      "stateMutability": "view",
      "type": "function",
      "constant": true
    },
    {
      "inputs": [
        {
          "internalType": "uint256",
          "name": "_stake",
          "type": "uint256"
        },
        {
          "internalType": "address",
          "name": "referree",
          "type": "address"
        }
      ],
      "name": "stake",
      "outputs": [],
      "stateMutability": "nonpayable",
      "type": "function"
    },
    {
      "inputs": [
        {
          "internalType": "address",
          "name": "_stakeholder",
          "type": "address"
        }
      ],
      "name": "stakeOf",
      "outputs": [
        {
          "internalType": "uint256",
          "name": "",
          "type": "uint256"
        }
      ],
      "stateMutability": "view",
      "type": "function",
      "constant": true
    },
    {
      "inputs": [
        {
          "internalType": "uint256",
          "name": "_stake",
          "type": "uint256"
        }
      ],
      "name": "removeStake",
      "outputs": [],
      "stateMutability": "nonpayable",
      "type": "function"
    },
    {
      "inputs": [],
      "name": "getRewardToShareWeekly",
      "outputs": [],
      "stateMutability": "nonpayable",
      "type": "function"
    },
    {
      "inputs": [],
      "name": "getRewards",
      "outputs": [],
      "stateMutability": "nonpayable",
      "type": "function"
    },
    {
      "inputs": [],
      "name": "getReferralBouns",
      "outputs": [],
      "stateMutability": "nonpayable",
      "type": "function"
    },
    {
      "inputs": [
        {
          "internalType": "address",
          "name": "_stakeholder",
          "type": "address"
        }
      ],
      "name": "rewardOf",
      "outputs": [
        {
          "internalType": "uint256",
          "name": "",
          "type": "uint256"
        }
      ],
      "stateMutability": "view",
      "type": "function",
      "constant": true
    },
    {
      "inputs": [],
      "name": "withdrawReward",
      "outputs": [],
      "stateMutability": "nonpayable",
      "type": "function"
    }
  ],
  "bytecode": "0x608060405234801561001057600080fd5b50613457806100206000396000f3fe608060405234801561001057600080fd5b50600436106101735760003560e01c8063939624ab116100de578063c4d66de811610097578063e96e27bf11610071578063e96e27bf146106cc578063f2fde38b14610724578063f6b4dfb414610768578063ff2f86d6146107b257610173565b8063c4d66de814610626578063c885bc581461066a578063d8cb4aa31461067457610173565b8063939624ab146104a35780639f39870a146104d1578063b01d4daf146104db578063b2dd5c0714610549578063bf9befb1146105a5578063c07cfca9146105c357610173565b80635580f72a116101305780635580f72a1461028c5780636ffac601146102e4578063715018a61461037d57806378ca5e87146103875780637acb77571461040b5780638da5cb5b1461045957610173565b80630572b0cc146101785780630c56ae3b1461018257806318e1fbfc146101a05780631d62ebd9146101be57806342623360146102165780635284d4051461026e575b600080fd5b6101806107bc565b005b61018a610c05565b6040518082815260200191505060405180910390f35b6101a8610c0b565b6040518082815260200191505060405180910390f35b610200600480360360208110156101d457600080fd5b81019080803573ffffffffffffffffffffffffffffffffffffffff169060200190929190505050610c11565b6040518082815260200191505060405180910390f35b6102586004803603602081101561022c57600080fd5b81019080803573ffffffffffffffffffffffffffffffffffffffff169060200190929190505050610c5a565b6040518082815260200191505060405180910390f35b610276610ca3565b6040518082815260200191505060405180910390f35b6102ce600480360360208110156102a257600080fd5b81019080803573ffffffffffffffffffffffffffffffffffffffff169060200190929190505050610ca9565b6040518082815260200191505060405180910390f35b610326600480360360208110156102fa57600080fd5b81019080803573ffffffffffffffffffffffffffffffffffffffff169060200190929190505050610d8c565b6040518080602001828103825283818151815260200191508051906020019060200280838360005b8381101561036957808201518184015260208101905061034e565b505050509050019250505060405180910390f35b610385610e5c565b005b6103c96004803603602081101561039d57600080fd5b81019080803573ffffffffffffffffffffffffffffffffffffffff169060200190929190505050610fe7565b604051808273ffffffffffffffffffffffffffffffffffffffff1673ffffffffffffffffffffffffffffffffffffffff16815260200191505060405180910390f35b6104576004803603604081101561042157600080fd5b8101908080359060200190929190803573ffffffffffffffffffffffffffffffffffffffff16906020019092919050505061101a565b005b610461611633565b604051808273ffffffffffffffffffffffffffffffffffffffff1673ffffffffffffffffffffffffffffffffffffffff16815260200191505060405180910390f35b6104cf600480360360208110156104b957600080fd5b810190808035906020019092919050505061165d565b005b6104d9611982565b005b610507600480360360208110156104f157600080fd5b8101908080359060200190929190505050611bce565b604051808273ffffffffffffffffffffffffffffffffffffffff1673ffffffffffffffffffffffffffffffffffffffff16815260200191505060405180910390f35b61058b6004803603602081101561055f57600080fd5b81019080803573ffffffffffffffffffffffffffffffffffffffff169060200190929190505050611c01565b604051808215151515815260200191505060405180910390f35b6105ad611c21565b6040518082815260200191505060405180910390f35b610605600480360360208110156105d957600080fd5b81019080803573ffffffffffffffffffffffffffffffffffffffff169060200190929190505050611c27565b60405180831515151581526020018281526020019250505060405180910390f35b6106686004803603602081101561063c57600080fd5b81019080803573ffffffffffffffffffffffffffffffffffffffff169060200190929190505050611c58565b005b610672611de2565b005b6106b66004803603602081101561068a57600080fd5b81019080803573ffffffffffffffffffffffffffffffffffffffff1690602001909291905050506120b4565b6040518082815260200191505060405180910390f35b61070e600480360360208110156106e257600080fd5b81019080803573ffffffffffffffffffffffffffffffffffffffff1690602001909291905050506120d2565b6040518082815260200191505060405180910390f35b6107666004803603602081101561073a57600080fd5b81019080803573ffffffffffffffffffffffffffffffffffffffff16906020019092919050505061211e565b005b61077061232e565b604051808273ffffffffffffffffffffffffffffffffffffffff1673ffffffffffffffffffffffffffffffffffffffff16815260200191505060405180910390f35b6107ba612354565b005b60011515609e60003373ffffffffffffffffffffffffffffffffffffffff1673ffffffffffffffffffffffffffffffffffffffff16815260200190815260200160002060000160009054906101000a900460ff16151514610868576040517f08c379a000000000000000000000000000000000000000000000000000000000815260040180806020018281038252602981526020018061333d6029913960400191505060405180910390fd5b6000609d54116108e0576040517f08c379a000000000000000000000000000000000000000000000000000000000815260040180806020018281038252601f8152602001807f6e6f2072657761726420746f20736861726520617420746869732074696d650081525060200191505060405180910390fd5b60a660003373ffffffffffffffffffffffffffffffffffffffff1673ffffffffffffffffffffffffffffffffffffffff168152602001908152602001600020544211610977576040517f08c379a00000000000000000000000000000000000000000000000000000000081526004018080602001828103825260278152602001806133166027913960400191505060405180910390fd5b620a8c00420160a660003373ffffffffffffffffffffffffffffffffffffffff1673ffffffffffffffffffffffffffffffffffffffff1681526020019081526020016000208190555060006109cb336124ec565b905060a260003373ffffffffffffffffffffffffffffffffffffffff1673ffffffffffffffffffffffffffffffffffffffff16815260200190815260200160002060009054906101000a900460ff1615610b6c576000610a486064610a3a60058561255d90919063ffffffff16565b6125e390919063ffffffff16565b90506000610a5f828461262d90919063ffffffff16565b9050600060a160003373ffffffffffffffffffffffffffffffffffffffff1673ffffffffffffffffffffffffffffffffffffffff16815260200190815260200160002060009054906101000a900473ffffffffffffffffffffffffffffffffffffffff169050610acf8184612677565b610b218260a360003373ffffffffffffffffffffffffffffffffffffffff1673ffffffffffffffffffffffffffffffffffffffff1681526020019081526020016000205461278c90919063ffffffff16565b60a360003373ffffffffffffffffffffffffffffffffffffffff1673ffffffffffffffffffffffffffffffffffffffff16815260200190815260200160002081905550505050610c02565b610bbe8160a360003373ffffffffffffffffffffffffffffffffffffffff1673ffffffffffffffffffffffffffffffffffffffff1681526020019081526020016000205461278c90919063ffffffff16565b60a360003373ffffffffffffffffffffffffffffffffffffffff1673ffffffffffffffffffffffffffffffffffffffff168152602001908152602001600020819055505b50565b60985481565b609c5481565b600060a360008373ffffffffffffffffffffffffffffffffffffffff1673ffffffffffffffffffffffffffffffffffffffff168152602001908152602001600020549050919050565b600060a060008373ffffffffffffffffffffffffffffffffffffffff1673ffffffffffffffffffffffffffffffffffffffff168152602001908152602001600020549050919050565b60995481565b6000609760009054906101000a900473ffffffffffffffffffffffffffffffffffffffff1673ffffffffffffffffffffffffffffffffffffffff166370a08231836040518263ffffffff1660e01b8152600401808273ffffffffffffffffffffffffffffffffffffffff1673ffffffffffffffffffffffffffffffffffffffff16815260200191505060206040518083038186803b158015610d4a57600080fd5b505afa158015610d5e573d6000803e3d6000fd5b505050506040513d6020811015610d7457600080fd5b81019080805190602001909291905050509050919050565b606060a460008373ffffffffffffffffffffffffffffffffffffffff1673ffffffffffffffffffffffffffffffffffffffff168152602001908152602001600020600101805480602002602001604051908101604052809291908181526020018280548015610e5057602002820191906000526020600020905b8160009054906101000a900473ffffffffffffffffffffffffffffffffffffffff1673ffffffffffffffffffffffffffffffffffffffff1681526020019060010190808311610e06575b50505050509050919050565b610e64612814565b73ffffffffffffffffffffffffffffffffffffffff16606560009054906101000a900473ffffffffffffffffffffffffffffffffffffffff1673ffffffffffffffffffffffffffffffffffffffff1614610f26576040517f08c379a00000000000000000000000000000000000000000000000000000000081526004018080602001828103825260208152602001807f4f776e61626c653a2063616c6c6572206973206e6f7420746865206f776e657281525060200191505060405180910390fd5b600073ffffffffffffffffffffffffffffffffffffffff16606560009054906101000a900473ffffffffffffffffffffffffffffffffffffffff1673ffffffffffffffffffffffffffffffffffffffff167f8be0079c531659141344cd1fd0a4f28419497f9722a3daafe3b4186f6b6457e060405160405180910390a36000606560006101000a81548173ffffffffffffffffffffffffffffffffffffffff021916908373ffffffffffffffffffffffffffffffffffffffff160217905550565b60a16020528060005260406000206000915054906101000a900473ffffffffffffffffffffffffffffffffffffffff1681565b609c54821015611075576040517f08c379a00000000000000000000000000000000000000000000000000000000081526004018080602001828103825260248152602001806133fe6024913960400191505060405180910390fd5b8161107f33610ca9565b10156110d6576040517f08c379a00000000000000000000000000000000000000000000000000000000081526004018080602001828103825260218152602001806133666021913960400191505060405180910390fd5b600060a060003373ffffffffffffffffffffffffffffffffffffffff1673ffffffffffffffffffffffffffffffffffffffff168152602001908152602001600020541415611128576111273361281c565b5b60a760003373ffffffffffffffffffffffffffffffffffffffff1673ffffffffffffffffffffffffffffffffffffffff16815260200190815260200160002060009054906101000a900460ff166113e057600061118483612993565b9050600061119b828561262d90919063ffffffff16565b90506111b28160985461278c90919063ffffffff16565b60988190555061120a8260a060003373ffffffffffffffffffffffffffffffffffffffff1673ffffffffffffffffffffffffffffffffffffffff1681526020019081526020016000205461278c90919063ffffffff16565b60a060003373ffffffffffffffffffffffffffffffffffffffff1673ffffffffffffffffffffffffffffffffffffffff1681526020019081526020016000208190555061126282609a5461278c90919063ffffffff16565b609a81905550600160a760003373ffffffffffffffffffffffffffffffffffffffff1673ffffffffffffffffffffffffffffffffffffffff16815260200190815260200160002060006101000a81548160ff021916908315150217905550609760009054906101000a900473ffffffffffffffffffffffffffffffffffffffff1673ffffffffffffffffffffffffffffffffffffffff166323b872dd3330876040518463ffffffff1660e01b8152600401808473ffffffffffffffffffffffffffffffffffffffff1673ffffffffffffffffffffffffffffffffffffffff1681526020018373ffffffffffffffffffffffffffffffffffffffff1673ffffffffffffffffffffffffffffffffffffffff1681526020018281526020019350505050602060405180830381600087803b15801561139d57600080fd5b505af11580156113b1573d6000803e3d6000fd5b505050506040513d60208110156113c757600080fd5b81019080805190602001909291905050505050506115eb565b60006113eb836129e6565b90506000611402828561262d90919063ffffffff16565b90506114198160985461278c90919063ffffffff16565b6098819055506114718260a060003373ffffffffffffffffffffffffffffffffffffffff1673ffffffffffffffffffffffffffffffffffffffff1681526020019081526020016000205461278c90919063ffffffff16565b60a060003373ffffffffffffffffffffffffffffffffffffffff1673ffffffffffffffffffffffffffffffffffffffff168152602001908152602001600020819055506114c982609a5461278c90919063ffffffff16565b609a81905550609760009054906101000a900473ffffffffffffffffffffffffffffffffffffffff1673ffffffffffffffffffffffffffffffffffffffff166323b872dd3330876040518463ffffffff1660e01b8152600401808473ffffffffffffffffffffffffffffffffffffffff1673ffffffffffffffffffffffffffffffffffffffff1681526020018373ffffffffffffffffffffffffffffffffffffffff1673ffffffffffffffffffffffffffffffffffffffff1681526020018281526020019350505050602060405180830381600087803b1580156115ac57600080fd5b505af11580156115c0573d6000803e3d6000fd5b505050506040513d60208110156115d657600080fd5b81019080805190602001909291905050505050505b600073ffffffffffffffffffffffffffffffffffffffff168173ffffffffffffffffffffffffffffffffffffffff1614156116255761162f565b61162e81612a39565b5b5050565b6000606560009054906101000a900473ffffffffffffffffffffffffffffffffffffffff16905090565b600060a060003373ffffffffffffffffffffffffffffffffffffffff1673ffffffffffffffffffffffffffffffffffffffff1681526020019081526020016000205411611712576040517f08c379a00000000000000000000000000000000000000000000000000000000081526004018080602001828103825260168152602001807f7374616b6573206d7573742062652061626f766520300000000000000000000081525060200191505060405180910390fd5b6117648160a060003373ffffffffffffffffffffffffffffffffffffffff1673ffffffffffffffffffffffffffffffffffffffff1681526020019081526020016000205461262d90919063ffffffff16565b60a060003373ffffffffffffffffffffffffffffffffffffffff1673ffffffffffffffffffffffffffffffffffffffff16815260200190815260200160002081905550600060a060003373ffffffffffffffffffffffffffffffffffffffff1673ffffffffffffffffffffffffffffffffffffffff1681526020019081526020016000205414156117f9576117f833612e48565b5b6000611804826130b4565b9050600061181b828461262d90919063ffffffff16565b90506118328160985461278c90919063ffffffff16565b60988190555061184d83609a5461262d90919063ffffffff16565b609a81905550600060a360003373ffffffffffffffffffffffffffffffffffffffff1673ffffffffffffffffffffffffffffffffffffffff16815260200190815260200160002081905550609760009054906101000a900473ffffffffffffffffffffffffffffffffffffffff1673ffffffffffffffffffffffffffffffffffffffff1663a9059cbb33846040518363ffffffff1660e01b8152600401808373ffffffffffffffffffffffffffffffffffffffff1673ffffffffffffffffffffffffffffffffffffffff16815260200182815260200192505050602060405180830381600087803b15801561194157600080fd5b505af1158015611955573d6000803e3d6000fd5b505050506040513d602081101561196b57600080fd5b810190808051906020019092919050505050505050565b60011515609e60003373ffffffffffffffffffffffffffffffffffffffff1673ffffffffffffffffffffffffffffffffffffffff16815260200190815260200160002060000160009054906101000a900460ff16151514611a2e576040517f08c379a000000000000000000000000000000000000000000000000000000000815260040180806020018281038252602981526020018061333d6029913960400191505060405180910390fd5b600060a560003373ffffffffffffffffffffffffffffffffffffffff1673ffffffffffffffffffffffffffffffffffffffff1681526020019081526020016000206000015411611ae6576040517f08c379a00000000000000000000000000000000000000000000000000000000081526004018080602001828103825260198152602001807f796f7520646f206e6f74206861766520616e7920626f6e75730000000000000081525060200191505060405180910390fd5b600060a560003373ffffffffffffffffffffffffffffffffffffffff1673ffffffffffffffffffffffffffffffffffffffff168152602001908152602001600020600001549050611b7f8160a360003373ffffffffffffffffffffffffffffffffffffffff1673ffffffffffffffffffffffffffffffffffffffff1681526020019081526020016000205461278c90919063ffffffff16565b60a360003373ffffffffffffffffffffffffffffffffffffffff1673ffffffffffffffffffffffffffffffffffffffff16815260200190815260200160002081905550611bcb33613107565b50565b609f6020528060005260406000206000915054906101000a900473ffffffffffffffffffffffffffffffffffffffff1681565b60a76020528060005260406000206000915054906101000a900460ff1681565b609a5481565b609e6020528060005260406000206000915090508060000160009054906101000a900460ff16908060010154905082565b600060019054906101000a900460ff1680611c775750611c76613152565b5b80611c8e57506000809054906101000a900460ff16155b611ce3576040517f08c379a000000000000000000000000000000000000000000000000000000000815260040180806020018281038252602e8152602001806133d0602e913960400191505060405180910390fd5b60008060019054906101000a900460ff161590508015611d33576001600060016101000a81548160ff02191690831515021790555060016000806101000a81548160ff0219169083151502179055505b81609760006101000a81548173ffffffffffffffffffffffffffffffffffffffff021916908373ffffffffffffffffffffffffffffffffffffffff160217905550600060988190555060006099819055506000609a819055506000609a819055506000609b819055506000609d819055507103025f39ef241c56cd2e7c40000000000000609c819055508015611dde5760008060016101000a81548160ff0219169083151502179055505b5050565b600060a360003373ffffffffffffffffffffffffffffffffffffffff1673ffffffffffffffffffffffffffffffffffffffff1681526020019081526020016000205411611e97576040517f08c379a000000000000000000000000000000000000000000000000000000000815260040180806020018281038252601e8152602001807f7265776172642062616c616e6365206d7573742062652061626f76652030000081525060200191505060405180910390fd5b60011515609e60003373ffffffffffffffffffffffffffffffffffffffff1673ffffffffffffffffffffffffffffffffffffffff16815260200190815260200160002060000160009054906101000a900460ff16151514611f43576040517f08c379a000000000000000000000000000000000000000000000000000000000815260040180806020018281038252602981526020018061333d6029913960400191505060405180910390fd5b600060a360003373ffffffffffffffffffffffffffffffffffffffff1673ffffffffffffffffffffffffffffffffffffffff168152602001908152602001600020549050609760009054906101000a900473ffffffffffffffffffffffffffffffffffffffff1673ffffffffffffffffffffffffffffffffffffffff1663a9059cbb33836040518363ffffffff1660e01b8152600401808373ffffffffffffffffffffffffffffffffffffffff1673ffffffffffffffffffffffffffffffffffffffff16815260200182815260200192505050602060405180830381600087803b15801561203057600080fd5b505af1158015612044573d6000803e3d6000fd5b505050506040513d602081101561205a57600080fd5b810190808051906020019092919050505050600060a360003373ffffffffffffffffffffffffffffffffffffffff1673ffffffffffffffffffffffffffffffffffffffff1681526020019081526020016000208190555050565b60a56020528060005260406000206000915090508060000154905081565b600060a460008373ffffffffffffffffffffffffffffffffffffffff1673ffffffffffffffffffffffffffffffffffffffff168152602001908152602001600020600001549050919050565b612126612814565b73ffffffffffffffffffffffffffffffffffffffff16606560009054906101000a900473ffffffffffffffffffffffffffffffffffffffff1673ffffffffffffffffffffffffffffffffffffffff16146121e8576040517f08c379a00000000000000000000000000000000000000000000000000000000081526004018080602001828103825260208152602001807f4f776e61626c653a2063616c6c6572206973206e6f7420746865206f776e657281525060200191505060405180910390fd5b600073ffffffffffffffffffffffffffffffffffffffff168173ffffffffffffffffffffffffffffffffffffffff16141561226e576040517f08c379a00000000000000000000000000000000000000000000000000000000081526004018080602001828103825260268152602001806132f06026913960400191505060405180910390fd5b8073ffffffffffffffffffffffffffffffffffffffff16606560009054906101000a900473ffffffffffffffffffffffffffffffffffffffff1673ffffffffffffffffffffffffffffffffffffffff167f8be0079c531659141344cd1fd0a4f28419497f9722a3daafe3b4186f6b6457e060405160405180910390a380606560006101000a81548173ffffffffffffffffffffffffffffffffffffffff021916908373ffffffffffffffffffffffffffffffffffffffff16021790555050565b609760009054906101000a900473ffffffffffffffffffffffffffffffffffffffff1681565b61235c612814565b73ffffffffffffffffffffffffffffffffffffffff16606560009054906101000a900473ffffffffffffffffffffffffffffffffffffffff1673ffffffffffffffffffffffffffffffffffffffff161461241e576040517f08c379a00000000000000000000000000000000000000000000000000000000081526004018080602001828103825260208152602001807f4f776e61626c653a2063616c6c6572206973206e6f7420746865206f776e657281525060200191505060405180910390fd5b609b544211612495576040517f08c379a00000000000000000000000000000000000000000000000000000000081526004018080602001828103825260198152602001807f776169742032346872732066726f6d206c6173742063616c6c0000000000000081525060200191505060405180910390fd5b6124ab62093a804261278c90919063ffffffff16565b609b819055506124c760026098546125e390919063ffffffff16565b609d819055506124e4609d5460985461262d90919063ffffffff16565b609881905550565b6000612556609a54612548609d5460a060008773ffffffffffffffffffffffffffffffffffffffff1673ffffffffffffffffffffffffffffffffffffffff1681526020019081526020016000205461255d90919063ffffffff16565b6125e390919063ffffffff16565b9050919050565b60008083141561257057600090506125dd565b600082840290508284828161258157fe5b04146125d8576040517f08c379a00000000000000000000000000000000000000000000000000000000081526004018080602001828103825260218152602001806133af6021913960400191505060405180910390fd5b809150505b92915050565b600061262583836040518060400160405280601a81526020017f536166654d6174683a206469766973696f6e206279207a65726f000000000000815250613169565b905092915050565b600061266f83836040518060400160405280601e81526020017f536166654d6174683a207375627472616374696f6e206f766572666c6f77000081525061322f565b905092915050565b600081116126ed576040517f08c379a00000000000000000000000000000000000000000000000000000000081526004018080602001828103825260208152602001807f43616e206e6f7420696e6372656d656e7420616d6f756e74206279207a65726f81525060200191505060405180910390fd5b6127428160a560008573ffffffffffffffffffffffffffffffffffffffff1673ffffffffffffffffffffffffffffffffffffffff1681526020019081526020016000206000015461278c90919063ffffffff16565b60a560008473ffffffffffffffffffffffffffffffffffffffff1673ffffffffffffffffffffffffffffffffffffffff168152602001908152602001600020600001819055505050565b60008082840190508381101561280a576040517f08c379a000000000000000000000000000000000000000000000000000000000815260040180806020018281038252601b8152602001807f536166654d6174683a206164646974696f6e206f766572666c6f77000000000081525060200191505060405180910390fd5b8091505092915050565b600033905090565b60001515609e60008373ffffffffffffffffffffffffffffffffffffffff1673ffffffffffffffffffffffffffffffffffffffff16815260200190815260200160002060000160009054906101000a900460ff1615151461287c57600080fd5b6001609e60008373ffffffffffffffffffffffffffffffffffffffff1673ffffffffffffffffffffffffffffffffffffffff16815260200190815260200160002060000160006101000a81548160ff021916908315150217905550609954609e60008373ffffffffffffffffffffffffffffffffffffffff1673ffffffffffffffffffffffffffffffffffffffff1681526020019081526020016000206001018190555080609f6000609954815260200190815260200160002060006101000a81548173ffffffffffffffffffffffffffffffffffffffff021916908373ffffffffffffffffffffffffffffffffffffffff16021790555061298a600160995461278c90919063ffffffff16565b60998190555050565b6000806129aa60148461255d90919063ffffffff16565b905060006129c26064836125e390919063ffffffff16565b905060006129d9828661262d90919063ffffffff16565b9050809350505050919050565b6000806129fd600a8461255d90919063ffffffff16565b90506000612a156064836125e390919063ffffffff16565b90506000612a2c828661262d90919063ffffffff16565b9050809350505050919050565b8073ffffffffffffffffffffffffffffffffffffffff163373ffffffffffffffffffffffffffffffffffffffff161415612abe576040517f08c379a00000000000000000000000000000000000000000000000000000000081526004018080602001828103825260288152602001806133876028913960400191505060405180910390fd5b6000151560a260003373ffffffffffffffffffffffffffffffffffffffff1673ffffffffffffffffffffffffffffffffffffffff16815260200190815260200160002060009054906101000a900460ff16151514612b84576040517f08c379a000000000000000000000000000000000000000000000000000000000815260040180806020018281038252601e8152602001807f616c7265616479207375626d697474656420796f75722072656665726565000081525060200191505060405180910390fd5b60011515609e60008373ffffffffffffffffffffffffffffffffffffffff1673ffffffffffffffffffffffffffffffffffffffff16815260200190815260200160002060000160009054906101000a900460ff16151514612c30576040517f08c379a000000000000000000000000000000000000000000000000000000000815260040180806020018281038252602981526020018061333d6029913960400191505060405180910390fd5b612c86600160a460008473ffffffffffffffffffffffffffffffffffffffff1673ffffffffffffffffffffffffffffffffffffffff1681526020019081526020016000206000015461278c90919063ffffffff16565b60a460008373ffffffffffffffffffffffffffffffffffffffff1673ffffffffffffffffffffffffffffffffffffffff1681526020019081526020016000206000018190555060a460008273ffffffffffffffffffffffffffffffffffffffff1673ffffffffffffffffffffffffffffffffffffffff168152602001908152602001600020600101339080600181540180825580915050600190039060005260206000200160009091909190916101000a81548173ffffffffffffffffffffffffffffffffffffffff021916908373ffffffffffffffffffffffffffffffffffffffff1602179055508060a160003373ffffffffffffffffffffffffffffffffffffffff1673ffffffffffffffffffffffffffffffffffffffff16815260200190815260200160002060006101000a81548173ffffffffffffffffffffffffffffffffffffffff021916908373ffffffffffffffffffffffffffffffffffffffff160217905550600160a260003373ffffffffffffffffffffffffffffffffffffffff1673ffffffffffffffffffffffffffffffffffffffff16815260200190815260200160002060006101000a81548160ff02191690831515021790555050565b60011515609e60008373ffffffffffffffffffffffffffffffffffffffff1673ffffffffffffffffffffffffffffffffffffffff16815260200190815260200160002060000160009054906101000a900460ff16151514156130b1576000609e60008373ffffffffffffffffffffffffffffffffffffffff1673ffffffffffffffffffffffffffffffffffffffff1681526020019081526020016000206001015490506000609f6000600160995403815260200190815260200160002060009054906101000a900473ffffffffffffffffffffffffffffffffffffffff169050609f6000600160995403815260200190815260200160002060009054906101000a900473ffffffffffffffffffffffffffffffffffffffff16609f600084815260200190815260200160002060006101000a81548173ffffffffffffffffffffffffffffffffffffffff021916908373ffffffffffffffffffffffffffffffffffffffff16021790555081609e60008373ffffffffffffffffffffffffffffffffffffffff1673ffffffffffffffffffffffffffffffffffffffff16815260200190815260200160002060010181905550609e60008473ffffffffffffffffffffffffffffffffffffffff1673ffffffffffffffffffffffffffffffffffffffff168152602001908152602001600020600080820160006101000a81549060ff021916905560018201600090555050609f6000600160995403815260200190815260200160002060006101000a81549073ffffffffffffffffffffffffffffffffffffffff02191690556130a8600160995461262d90919063ffffffff16565b60998190555050505b50565b6000806130cb60148461255d90919063ffffffff16565b905060006130e36064836125e390919063ffffffff16565b905060006130fa828661262d90919063ffffffff16565b9050809350505050919050565b600060a560008373ffffffffffffffffffffffffffffffffffffffff1673ffffffffffffffffffffffffffffffffffffffff1681526020019081526020016000206000018190555050565b6000803090506000813b9050600081149250505090565b60008083118290613215576040517f08c379a00000000000000000000000000000000000000000000000000000000081526004018080602001828103825283818151815260200191508051906020019080838360005b838110156131da5780820151818401526020810190506131bf565b50505050905090810190601f1680156132075780820380516001836020036101000a031916815260200191505b509250505060405180910390fd5b50600083858161322157fe5b049050809150509392505050565b60008383111582906132dc576040517f08c379a00000000000000000000000000000000000000000000000000000000081526004018080602001828103825283818151815260200191508051906020019080838360005b838110156132a1578082015181840152602081019050613286565b50505050905090810190601f1680156132ce5780820380516001836020036101000a031916815260200191505b509250505060405180910390fd5b506000838503905080915050939250505056fe4f776e61626c653a206e6577206f776e657220697320746865207a65726f206164647265737363616e206f6e6c792063616c6c20746869732066756e6374696f6e206f6e63652061207765656b6164647265737320646f6573206e6f742062656c6f6e6720746f2061207374616b65686f6c646572734d757374206861766520656e6f7567682062616c616e636520746f207374616b6563616e6e6f742061646420796f7572206164647265737320617320796f757220726566657272616c536166654d6174683a206d756c7469706c69636174696f6e206f766572666c6f77436f6e747261637420696e7374616e63652068617320616c7265616479206265656e20696e697469616c697a6564416d6f756e742069732062656c6f77206d696e696d756d207374616b652076616c75652ea2646970667358221220d776134ae61ca96f72e36dbbef04c49f40a2a101ee8deb9368a3a976eac5bff864736f6c63430006020033",
  "source": "//\"SPDX-License-Identifier: UNLICENSED\"\r\n\r\npragma solidity >=0.4.0 <0.8.0;\r\n\r\nimport \"@openzeppelin/contracts-ethereum-package/contracts/access/Ownable.sol\";\r\nimport \"@openzeppelin/contracts-ethereum-package/contracts/math/SafeMath.sol\";\r\nimport \"@openzeppelin/contracts-ethereum-package/contracts/token/ERC20/IERC20.sol\";\r\nimport \"@openzeppelin/contracts-ethereum-package/contracts/Initializable.sol\";\r\n\r\n\r\ncontract StakingToken is Initializable, OwnableUpgradeSafe {\r\n    \r\n    //initializing safe computations\r\n    using SafeMath for uint;\r\n\r\n    IERC20 public contractAddress;\r\n    uint public stakingPool;\r\n    uint public stakeholdersIndex;\r\n    uint public totalStakes;\r\n    uint private setTime;\r\n    uint public minimumStakeValue;\r\n    \r\n    uint rewardToShare;\r\n\r\n    struct Referrals {\r\n        uint referralcount;\r\n        address[] referredAddresses;    \r\n    }\r\n    \r\n    struct ReferralBonus {\r\n        uint uplineProfit;\r\n    }\r\n    \r\n    struct Stakeholder {\r\n         bool staker;\r\n         uint id;\r\n    }\r\n    \r\n    mapping (address => Stakeholder) public stakeholders;\r\n    mapping (uint => address) public stakeholdersReverseMapping;\r\n    mapping(address => uint256) private stakes;\r\n    mapping(address => address) public addressThatReferred;\r\n    mapping(address => bool) private exist;\r\n    mapping(address => uint256) private rewards;\r\n    mapping(address => Referrals) private referral;\r\n    mapping(address => ReferralBonus) public bonus;\r\n    mapping(address => uint256) private time;\r\n    mapping(address => bool) public registered;\r\n\r\n    function initialize(IERC20 _contractAddress) initializer public {\r\n        contractAddress = _contractAddress;\r\n        stakingPool = 0;\r\n        stakeholdersIndex = 0;\r\n        totalStakes = 0;\r\n        totalStakes = 0;\r\n        setTime = 0;\r\n        rewardToShare = 0;\r\n        minimumStakeValue = (20 * 10) ** 18;\r\n    }\r\n    \r\n     /* referree bonus will be added to his reward automatically*/\r\n    function addUplineProfit(address _stakeholderAddress, uint _amount) private  {\r\n        require(_amount > 0, \"Can not increment amount by zero\");\r\n        bonus[_stakeholderAddress].uplineProfit =  bonus[_stakeholderAddress].uplineProfit.add(_amount);\r\n    } \r\n    \r\n    /* return referree bonus to zero*/\r\n    function revertUplineProfit(address _stakeholderAddress) private {\r\n        bonus[_stakeholderAddress].uplineProfit =  0;\r\n    } \r\n     \r\n     /*returns referralcount for a stakeholder*/\r\n    function stakeholderReferralCount(address stakeholderAddress) external view returns(uint) {\r\n        return referral[stakeholderAddress].referralcount;\r\n     }\r\n    \r\n    /*check if _refereeAddress belongs to a stakeholder and \r\n    add a count, add referral to stakeholder referred list, and whitelist referral\r\n    assign the address that referred a stakeholder to that stakeholder to enable send bonus to referee\r\n    */\r\n    function addReferee(address _refereeAddress) private {\r\n        require(msg.sender != _refereeAddress, 'cannot add your address as your referral');\r\n        require(exist[msg.sender] == false, 'already submitted your referee' );\r\n        require(stakeholders[_refereeAddress].staker == true, 'address does not belong to a stakeholders');\r\n        referral[_refereeAddress].referralcount =  referral[_refereeAddress].referralcount.add(1);   \r\n        referral[_refereeAddress].referredAddresses.push(msg.sender);\r\n        addressThatReferred[msg.sender] = _refereeAddress;\r\n        exist[msg.sender] = true;\r\n    }\r\n    \r\n    /*returns stakeholders Referred List\r\n    */\r\n     function stakeholdersReferredList(address stakeholderAddress) view external returns(address[] memory){\r\n      return referral[stakeholderAddress].referredAddresses;\r\n    }\r\n    function bal(address addr) public view returns(uint) {\r\n        return contractAddress.balanceOf(addr);\r\n    }\r\n    \r\n    function stake(uint _stake, address referree) external {\r\n        require(_stake >= minimumStakeValue, \"Amount is below minimum stake value.\");\r\n        require(bal(msg.sender) >= _stake, \"Must have enough balance to stake\");\r\n        //require(IERC20(token).transfer(address(this), _stake), \"Stake failed due to failed amount transfer.\");\r\n        if(stakes[msg.sender] == 0) {\r\n            addStakeholder(msg.sender);\r\n        }\r\n\r\n        if(!registered[msg.sender]){\r\n            uint registerCost = registrationAndFirstStakeCost( _stake);\r\n            uint stakeToPool = _stake.sub(registerCost);\r\n            stakingPool = stakingPool.add(stakeToPool);\r\n            stakes[msg.sender] = stakes[msg.sender].add(registerCost);\r\n            totalStakes = totalStakes.add(registerCost);\r\n            registered[msg.sender] = true;\r\n            contractAddress.transferFrom(msg.sender,address(this), _stake);\r\n        }\r\n        else{\r\n            uint availableTostake = calculateStakingCost(_stake);\r\n            uint stakeToPool2 = _stake.sub(availableTostake);\r\n            stakingPool = stakingPool.add(stakeToPool2);\r\n            stakes[msg.sender] = stakes[msg.sender].add(availableTostake);\r\n            totalStakes = totalStakes.add(availableTostake);\r\n            contractAddress.transferFrom(msg.sender,address(this), _stake);\r\n        }\r\n        if(referree == address(0)){}\r\n        else{\r\n        addReferee(referree);\r\n        }  \r\n    }\r\n    \r\n     function stakeOf(address _stakeholder) external view returns(uint256) {\r\n        return stakes[_stakeholder];\r\n    }\r\n    \r\n     function removeStake(uint _stake) external {\r\n        require(stakes[msg.sender] > 0, 'stakes must be above 0');\r\n        stakes[msg.sender] = stakes[msg.sender].sub(_stake);\r\n         if(stakes[msg.sender] == 0){\r\n             removeStakeholder(msg.sender);\r\n         }\r\n        uint stakeToReceive = calculateUnstakingCost(_stake);\r\n        uint stakeToPool = _stake.sub(stakeToReceive);\r\n        stakingPool = stakingPool.add(stakeToPool);\r\n        totalStakes = totalStakes.sub(_stake);\r\n        rewards[msg.sender] = 0;\r\n        contractAddress.transfer(msg.sender, stakeToReceive);\r\n    }\r\n    \r\n    function addStakeholder(address _stakeholder) private {\r\n        require(stakeholders[_stakeholder].staker == false);\r\n\r\n        stakeholders[_stakeholder].staker = true;    \r\n        stakeholders[_stakeholder].id = stakeholdersIndex;\r\n        stakeholdersReverseMapping[stakeholdersIndex] = _stakeholder;\r\n        stakeholdersIndex = stakeholdersIndex.add(1);\r\n    }\r\n   \r\n    function removeStakeholder(address _stakeholder) private  {\r\n        if (stakeholders[_stakeholder].staker == true) {\r\n            // get id of the stakeholders to be deleted\r\n            uint swappableId = stakeholders[_stakeholder].id;\r\n            \r\n            // swap the stakeholders info and update admins mapping\r\n            // get the last stakeholdersReverseMapping address for swapping\r\n            address swappableAddress = stakeholdersReverseMapping[stakeholdersIndex -1];\r\n            \r\n            // swap the stakeholdersReverseMapping and then reduce stakeholder index\r\n            stakeholdersReverseMapping[swappableId] = stakeholdersReverseMapping[stakeholdersIndex - 1];\r\n            \r\n            // also remap the stakeholder id\r\n            stakeholders[swappableAddress].id = swappableId;\r\n            \r\n            // delete and reduce admin index \r\n            delete(stakeholders[_stakeholder]);\r\n            delete(stakeholdersReverseMapping[stakeholdersIndex - 1]);\r\n            stakeholdersIndex = stakeholdersIndex.sub(1);\r\n        }\r\n    }\r\n    \r\n    function getRewardToShareWeekly() external onlyOwner() {\r\n        require(block.timestamp > setTime, 'wait 24hrs from last call');\r\n        setTime = block.timestamp.add(7 days);\r\n        rewardToShare = stakingPool.div(2);\r\n        stakingPool = stakingPool.sub(rewardToShare);\r\n    }\r\n    \r\n    function getRewards() external {\r\n        require(stakeholders[msg.sender].staker == true, 'address does not belong to a stakeholders');\r\n        require(rewardToShare > 0, 'no reward to share at this time');\r\n        require(now > time[msg.sender], 'can only call this function once a week');\r\n        time[msg.sender] = now + 8 days;\r\n        uint256 reward = calculateReward(msg.sender);\r\n        if(exist[msg.sender]){\r\n            uint removeFromReward = reward.mul(5).div(100);\r\n            uint userRewardAfterUpLineBonus = reward.sub(removeFromReward);\r\n            address addr = addressThatReferred[msg.sender];\r\n            addUplineProfit(addr, removeFromReward);\r\n            rewards[msg.sender] = rewards[msg.sender].add(userRewardAfterUpLineBonus);\r\n        }\r\n        else{\r\n            rewards[msg.sender] = rewards[msg.sender].add(reward);\r\n        }\r\n    }\r\n    \r\n     function getReferralBouns() external {\r\n        require(stakeholders[msg.sender].staker == true, 'address does not belong to a stakeholders');\r\n        require(bonus[msg.sender].uplineProfit > 0, 'you do not have any bonus');\r\n        uint bonusToGet = bonus[msg.sender].uplineProfit;\r\n        rewards[msg.sender] = rewards[msg.sender].add(bonusToGet);\r\n        revertUplineProfit(msg.sender);\r\n    }\r\n    \r\n    /* return will converted to ether in frontend*/\r\n    function rewardOf(address _stakeholder) external view returns(uint256){\r\n        return rewards[_stakeholder];\r\n    }\r\n    \r\n    function calculateReward(address _stakeholder) internal view returns(uint256) {\r\n        return ((stakes[_stakeholder].mul(rewardToShare)).div(totalStakes));\r\n    }\r\n    \r\n    function registrationAndFirstStakeCost(uint256 _stake) private pure returns(uint) {\r\n        uint cost =  (_stake).mul(20);\r\n        uint percent = cost.div(100);\r\n        uint availableForstake = _stake.sub(percent);\r\n        return availableForstake;\r\n    }\r\n    \r\n     /*skaing cost 10% */\r\n    function calculateStakingCost(uint256 _stake) private pure returns(uint) {\r\n        uint stakingCost =  (_stake).mul(10);\r\n        uint percent = stakingCost.div(100);\r\n        uint availableForstake = _stake.sub(percent);\r\n        return availableForstake;\r\n    }\r\n    \r\n    /*unskaing cost 20% */\r\n    function calculateUnstakingCost(uint _stake) private pure returns(uint ) {\r\n        uint unstakingCost =  (_stake).mul(20);\r\n        uint percent = unstakingCost.div(100);\r\n        uint stakeReceived = _stake.sub(percent);\r\n        return stakeReceived;\r\n    }\r\n    \r\n    function withdrawReward() public {\r\n        require(rewards[msg.sender] > 0, 'reward balance must be above 0');\r\n        require(stakeholders[msg.sender].staker == true, 'address does not belong to a stakeholders');\r\n        uint256 reward = rewards[msg.sender];\r\n        contractAddress.transfer(msg.sender, reward);\r\n        rewards[msg.sender] = 0;\r\n    }\r\n} ",
  "sourcePath": "/mnt/c/Users/DragonLord/Desktop/dApp/StakingToken/contracts/StakingToken.sol",
  "compiler": {
    "name": "solc",
    "version": "0.6.2+commit.bacdbe57.Emscripten.clang"
  },
  "schemaVersion": "3.3.1",
  "updatedAt": "2020-10-18T21:03:43.927Z",
  "networkType": "ethereum",
  "devdoc": {
    "methods": {
      "owner()": {
        "details": "Returns the address of the current owner."
      },
      "renounceOwnership()": {
        "details": "Leaves the contract without owner. It will not be possible to call `onlyOwner` functions anymore. Can only be called by the current owner.     * NOTE: Renouncing ownership will leave the contract without an owner, thereby removing any functionality that is only available to the owner."
      },
      "transferOwnership(address)": {
        "details": "Transfers ownership of the contract to a new account (`newOwner`). Can only be called by the current owner."
      }
    }
  },
  "userdoc": {
    "methods": {}
  }
}